{
  "_format": "hh-sol-artifact-1",
  "contractName": "FT",
  "sourceName": "src/backend/contracts/FT.sol",
  "abi": [
    {
      "inputs": [
        {
          "internalType": "uint256",
          "name": "initialSupply",
          "type": "uint256"
        }
      ],
      "stateMutability": "nonpayable",
      "type": "constructor"
    },
    {
      "anonymous": false,
      "inputs": [
        {
          "indexed": true,
          "internalType": "address",
          "name": "owner",
          "type": "address"
        },
        {
          "indexed": true,
          "internalType": "address",
          "name": "spender",
          "type": "address"
        },
        {
          "indexed": false,
          "internalType": "uint256",
          "name": "value",
          "type": "uint256"
        }
      ],
      "name": "Approval",
      "type": "event"
    },
    {
      "anonymous": false,
      "inputs": [
        {
          "indexed": true,
          "internalType": "address",
          "name": "from",
          "type": "address"
        },
        {
          "indexed": true,
          "internalType": "address",
          "name": "to",
          "type": "address"
        },
        {
          "indexed": false,
          "internalType": "uint256",
          "name": "value",
          "type": "uint256"
        }
      ],
      "name": "Transfer",
      "type": "event"
    },
    {
      "inputs": [
        {
          "internalType": "address",
          "name": "owner",
          "type": "address"
        },
        {
          "internalType": "address",
          "name": "spender",
          "type": "address"
        }
      ],
      "name": "allowance",
      "outputs": [
        {
          "internalType": "uint256",
          "name": "",
          "type": "uint256"
        }
      ],
      "stateMutability": "view",
      "type": "function"
    },
    {
      "inputs": [
        {
          "internalType": "address",
          "name": "spender",
          "type": "address"
        },
        {
          "internalType": "uint256",
          "name": "amount",
          "type": "uint256"
        }
      ],
      "name": "approve",
      "outputs": [
        {
          "internalType": "bool",
          "name": "",
          "type": "bool"
        }
      ],
      "stateMutability": "nonpayable",
      "type": "function"
    },
    {
      "inputs": [
        {
          "internalType": "address",
          "name": "account",
          "type": "address"
        }
      ],
      "name": "balanceOf",
      "outputs": [
        {
          "internalType": "uint256",
          "name": "",
          "type": "uint256"
        }
      ],
      "stateMutability": "view",
      "type": "function"
    },
    {
      "inputs": [],
      "name": "buyToken",
      "outputs": [],
      "stateMutability": "payable",
      "type": "function"
    },
    {
      "inputs": [],
      "name": "decimals",
      "outputs": [
        {
          "internalType": "uint8",
          "name": "",
          "type": "uint8"
        }
      ],
      "stateMutability": "view",
      "type": "function"
    },
    {
      "inputs": [
        {
          "internalType": "address",
          "name": "spender",
          "type": "address"
        },
        {
          "internalType": "uint256",
          "name": "subtractedValue",
          "type": "uint256"
        }
      ],
      "name": "decreaseAllowance",
      "outputs": [
        {
          "internalType": "bool",
          "name": "",
          "type": "bool"
        }
      ],
      "stateMutability": "nonpayable",
      "type": "function"
    },
    {
      "inputs": [
        {
          "internalType": "address",
          "name": "spender",
          "type": "address"
        },
        {
          "internalType": "uint256",
          "name": "addedValue",
          "type": "uint256"
        }
      ],
      "name": "increaseAllowance",
      "outputs": [
        {
          "internalType": "bool",
          "name": "",
          "type": "bool"
        }
      ],
      "stateMutability": "nonpayable",
      "type": "function"
    },
    {
      "inputs": [],
      "name": "name",
      "outputs": [
        {
          "internalType": "string",
          "name": "",
          "type": "string"
        }
      ],
      "stateMutability": "view",
      "type": "function"
    },
    {
      "inputs": [],
      "name": "symbol",
      "outputs": [
        {
          "internalType": "string",
          "name": "",
          "type": "string"
        }
      ],
      "stateMutability": "view",
      "type": "function"
    },
    {
      "inputs": [],
      "name": "tokenOwner",
      "outputs": [
        {
          "internalType": "address",
          "name": "",
          "type": "address"
        }
      ],
      "stateMutability": "view",
      "type": "function"
    },
    {
      "inputs": [],
      "name": "totalBalance",
      "outputs": [
        {
          "internalType": "uint256",
          "name": "",
          "type": "uint256"
        }
      ],
      "stateMutability": "view",
      "type": "function"
    },
    {
      "inputs": [],
      "name": "totalSupply",
      "outputs": [
        {
          "internalType": "uint256",
          "name": "",
          "type": "uint256"
        }
      ],
      "stateMutability": "view",
      "type": "function"
    },
    {
      "inputs": [
        {
          "internalType": "address",
          "name": "to",
          "type": "address"
        },
        {
          "internalType": "uint256",
          "name": "amount",
          "type": "uint256"
        }
      ],
      "name": "transfer",
      "outputs": [
        {
          "internalType": "bool",
          "name": "",
          "type": "bool"
        }
      ],
      "stateMutability": "nonpayable",
      "type": "function"
    },
    {
      "inputs": [
        {
          "internalType": "address",
          "name": "from",
          "type": "address"
        },
        {
          "internalType": "address",
          "name": "to",
          "type": "address"
        },
        {
          "internalType": "uint256",
          "name": "amount",
          "type": "uint256"
        }
      ],
      "name": "transferFrom",
      "outputs": [
        {
          "internalType": "bool",
          "name": "",
          "type": "bool"
        }
      ],
      "stateMutability": "nonpayable",
      "type": "function"
    },
    {
      "inputs": [
        {
          "internalType": "uint256",
          "name": "amt",
          "type": "uint256"
        },
        {
          "internalType": "address",
          "name": "addr",
          "type": "address"
        }
      ],
      "name": "transferToken",
      "outputs": [],
      "stateMutability": "nonpayable",
      "type": "function"
    },
    {
      "inputs": [],
      "name": "unitsOneEthCanBuy",
      "outputs": [
        {
          "internalType": "uint256",
          "name": "",
          "type": "uint256"
        }
      ],
      "stateMutability": "view",
      "type": "function"
    }
  ],
  "bytecode": "0x6080604052600a6005553480156200001657600080fd5b50604051620022263803806200222683398181016040528101906200003c9190620003bc565b6040518060400160405280600f81526020017f5475616861496d616441736b61726900000000000000000000000000000000008152506040518060400160405280600381526020017f54494100000000000000000000000000000000000000000000000000000000008152508160039080519060200190620000c0929190620002f5565b508060049080519060200190620000d9929190620002f5565b50505033600660006101000a81548173ffffffffffffffffffffffffffffffffffffffff021916908373ffffffffffffffffffffffffffffffffffffffff16021790555060008190506200016133620001376200016960201b60201c565b60ff16600a62000148919062000528565b8362000155919062000665565b6200017260201b60201c565b5050620007b4565b60006012905090565b600073ffffffffffffffffffffffffffffffffffffffff168273ffffffffffffffffffffffffffffffffffffffff161415620001e5576040517f08c379a0000000000000000000000000000000000000000000000000000000008152600401620001dc9062000420565b60405180910390fd5b620001f960008383620002eb60201b60201c565b80600260008282546200020d919062000470565b92505081905550806000808473ffffffffffffffffffffffffffffffffffffffff1673ffffffffffffffffffffffffffffffffffffffff168152602001908152602001600020600082825462000264919062000470565b925050819055508173ffffffffffffffffffffffffffffffffffffffff16600073ffffffffffffffffffffffffffffffffffffffff167fddf252ad1be2c89b69c2b068fc378daa952ba7f163c4a11628f55a4df523b3ef83604051620002cb919062000442565b60405180910390a3620002e760008383620002f060201b60201c565b5050565b505050565b505050565b8280546200030390620006d0565b90600052602060002090601f01602090048101928262000327576000855562000373565b82601f106200034257805160ff191683800117855562000373565b8280016001018555821562000373579182015b828111156200037257825182559160200191906001019062000355565b5b50905062000382919062000386565b5090565b5b80821115620003a157600081600090555060010162000387565b5090565b600081519050620003b6816200079a565b92915050565b600060208284031215620003cf57600080fd5b6000620003df84828501620003a5565b91505092915050565b6000620003f7601f836200045f565b9150620004048262000771565b602082019050919050565b6200041a81620006c6565b82525050565b600060208201905081810360008301526200043b81620003e8565b9050919050565b60006020820190506200045960008301846200040f565b92915050565b600082825260208201905092915050565b60006200047d82620006c6565b91506200048a83620006c6565b9250827fffffffffffffffffffffffffffffffffffffffffffffffffffffffffffffffff03821115620004c257620004c162000706565b5b828201905092915050565b6000808291508390505b60018511156200051f57808604811115620004f757620004f662000706565b5b6001851615620005075780820291505b8081029050620005178562000764565b9450620004d7565b94509492505050565b60006200053582620006c6565b91506200054283620006c6565b9250620005717fffffffffffffffffffffffffffffffffffffffffffffffffffffffffffffffff848462000579565b905092915050565b6000826200058b57600190506200065e565b816200059b57600090506200065e565b8160018114620005b45760028114620005bf57620005f5565b60019150506200065e565b60ff841115620005d457620005d362000706565b5b8360020a915084821115620005ee57620005ed62000706565b5b506200065e565b5060208310610133831016604e8410600b84101617156200062f5782820a90508381111562000629576200062862000706565b5b6200065e565b6200063e8484846001620004cd565b9250905081840481111562000658576200065762000706565b5b81810290505b9392505050565b60006200067282620006c6565b91506200067f83620006c6565b9250817fffffffffffffffffffffffffffffffffffffffffffffffffffffffffffffffff0483118215151615620006bb57620006ba62000706565b5b828202905092915050565b6000819050919050565b60006002820490506001821680620006e957607f821691505b602082108114156200070057620006ff62000735565b5b50919050565b7f4e487b7100000000000000000000000000000000000000000000000000000000600052601160045260246000fd5b7f4e487b7100000000000000000000000000000000000000000000000000000000600052602260045260246000fd5b60008160011c9050919050565b7f45524332303a206d696e7420746f20746865207a65726f206164647265737300600082015250565b620007a581620006c6565b8114620007b157600080fd5b50565b611a6280620007c46000396000f3fe6080604052600436106100f35760003560e01c806395d89b411161008a578063a9059cbb11610059578063a9059cbb14610335578063ad7a672f14610372578063bad425901461039d578063dd62ed3e146103c6576100f3565b806395d89b4114610298578063a3e67610146102c3578063a457c2d7146102ee578063a48217191461032b576100f3565b8063313ce567116100c6578063313ce567146101c857806339509351146101f357806365f2bc2e1461023057806370a082311461025b576100f3565b806306fdde03146100f8578063095ea7b31461012357806318160ddd1461016057806323b872dd1461018b575b600080fd5b34801561010457600080fd5b5061010d610403565b60405161011a9190611307565b60405180910390f35b34801561012f57600080fd5b5061014a600480360381019061014591906110cc565b610495565b60405161015791906112ec565b60405180910390f35b34801561016c57600080fd5b506101756104b8565b6040516101829190611429565b60405180910390f35b34801561019757600080fd5b506101b260048036038101906101ad919061107d565b6104c2565b6040516101bf91906112ec565b60405180910390f35b3480156101d457600080fd5b506101dd6104f1565b6040516101ea9190611444565b60405180910390f35b3480156101ff57600080fd5b5061021a600480360381019061021591906110cc565b6104fa565b60405161022791906112ec565b60405180910390f35b34801561023c57600080fd5b506102456105a4565b6040516102529190611429565b60405180910390f35b34801561026757600080fd5b50610282600480360381019061027d9190611018565b6105aa565b60405161028f9190611429565b60405180910390f35b3480156102a457600080fd5b506102ad6105f2565b6040516102ba9190611307565b60405180910390f35b3480156102cf57600080fd5b506102d8610684565b6040516102e591906112d1565b60405180910390f35b3480156102fa57600080fd5b50610315600480360381019061031091906110cc565b6106aa565b60405161032291906112ec565b60405180910390f35b610333610794565b005b34801561034157600080fd5b5061035c600480360381019061035791906110cc565b610940565b60405161036991906112ec565b60405180910390f35b34801561037e57600080fd5b50610387610963565b6040516103949190611429565b60405180910390f35b3480156103a957600080fd5b506103c460048036038101906103bf9190611108565b61099a565b005b3480156103d257600080fd5b506103ed60048036038101906103e89190611041565b610a7d565b6040516103fa9190611429565b60405180910390f35b60606003805461041290611724565b80601f016020809104026020016040519081016040528092919081815260200182805461043e90611724565b801561048b5780601f106104605761010080835404028352916020019161048b565b820191906000526020600020905b81548152906001019060200180831161046e57829003601f168201915b5050505050905090565b6000806104a0610b04565b90506104ad818585610b0c565b600191505092915050565b6000600254905090565b6000806104cd610b04565b90506104da858285610cd7565b6104e5858585610d63565b60019150509392505050565b60006012905090565b600080610505610b04565b9050610599818585600160008673ffffffffffffffffffffffffffffffffffffffff1673ffffffffffffffffffffffffffffffffffffffff16815260200190815260200160002060008973ffffffffffffffffffffffffffffffffffffffff1673ffffffffffffffffffffffffffffffffffffffff16815260200190815260200160002054610594919061147b565b610b0c565b600191505092915050565b60055481565b60008060008373ffffffffffffffffffffffffffffffffffffffff1673ffffffffffffffffffffffffffffffffffffffff168152602001908152602001600020549050919050565b60606004805461060190611724565b80601f016020809104026020016040519081016040528092919081815260200182805461062d90611724565b801561067a5780601f1061064f5761010080835404028352916020019161067a565b820191906000526020600020905b81548152906001019060200180831161065d57829003601f168201915b5050505050905090565b600660009054906101000a900473ffffffffffffffffffffffffffffffffffffffff1681565b6000806106b5610b04565b90506000600160008373ffffffffffffffffffffffffffffffffffffffff1673ffffffffffffffffffffffffffffffffffffffff16815260200190815260200160002060008673ffffffffffffffffffffffffffffffffffffffff1673ffffffffffffffffffffffffffffffffffffffff1681526020019081526020016000205490508381101561077b576040517f08c379a000000000000000000000000000000000000000000000000000000000815260040161077290611409565b60405180910390fd5b6107888286868403610b0c565b60019250505092915050565b6000600554346107a49190611642565b9050600554346107b49190611642565b6107df600660009054906101000a900473ffffffffffffffffffffffffffffffffffffffff166105aa565b1015610820576040517f08c379a0000000000000000000000000000000000000000000000000000000008152600401610817906113e9565b60405180910390fd5b61084d600660009054906101000a900473ffffffffffffffffffffffffffffffffffffffff163383610d63565b3373ffffffffffffffffffffffffffffffffffffffff16600660009054906101000a900473ffffffffffffffffffffffffffffffffffffffff1673ffffffffffffffffffffffffffffffffffffffff167fddf252ad1be2c89b69c2b068fc378daa952ba7f163c4a11628f55a4df523b3ef836040516108cc9190611429565b60405180910390a3600660009054906101000a900473ffffffffffffffffffffffffffffffffffffffff1673ffffffffffffffffffffffffffffffffffffffff166108fc349081150290604051600060405180830381858888f1935050505015801561093c573d6000803e3d6000fd5b5050565b60008061094b610b04565b9050610958818585610d63565b600191505092915050565b600080610991600660009054906101000a900473ffffffffffffffffffffffffffffffffffffffff166105aa565b90508091505090565b60006109a46104f1565b600a6109b09190611524565b836109bb9190611642565b9050806109c7336105aa565b1015610a08576040517f08c379a00000000000000000000000000000000000000000000000000000000081526004016109ff906113e9565b60405180910390fd5b610a13338383610d63565b3373ffffffffffffffffffffffffffffffffffffffff168273ffffffffffffffffffffffffffffffffffffffff167fddf252ad1be2c89b69c2b068fc378daa952ba7f163c4a11628f55a4df523b3ef83604051610a709190611429565b60405180910390a3505050565b6000600160008473ffffffffffffffffffffffffffffffffffffffff1673ffffffffffffffffffffffffffffffffffffffff16815260200190815260200160002060008373ffffffffffffffffffffffffffffffffffffffff1673ffffffffffffffffffffffffffffffffffffffff16815260200190815260200160002054905092915050565b600033905090565b600073ffffffffffffffffffffffffffffffffffffffff168373ffffffffffffffffffffffffffffffffffffffff161415610b7c576040517f08c379a0000000000000000000000000000000000000000000000000000000008152600401610b73906113c9565b60405180910390fd5b600073ffffffffffffffffffffffffffffffffffffffff168273ffffffffffffffffffffffffffffffffffffffff161415610bec576040517f08c379a0000000000000000000000000000000000000000000000000000000008152600401610be390611349565b60405180910390fd5b80600160008573ffffffffffffffffffffffffffffffffffffffff1673ffffffffffffffffffffffffffffffffffffffff16815260200190815260200160002060008473ffffffffffffffffffffffffffffffffffffffff1673ffffffffffffffffffffffffffffffffffffffff168152602001908152602001600020819055508173ffffffffffffffffffffffffffffffffffffffff168373ffffffffffffffffffffffffffffffffffffffff167f8c5be1e5ebec7d5bd14f71427d1e84f3dd0314c0f7b2291e5b200ac8c7c3b92583604051610cca9190611429565b60405180910390a3505050565b6000610ce38484610a7d565b90507fffffffffffffffffffffffffffffffffffffffffffffffffffffffffffffffff8114610d5d5781811015610d4f576040517f08c379a0000000000000000000000000000000000000000000000000000000008152600401610d4690611369565b60405180910390fd5b610d5c8484848403610b0c565b5b50505050565b600073ffffffffffffffffffffffffffffffffffffffff168373ffffffffffffffffffffffffffffffffffffffff161415610dd3576040517f08c379a0000000000000000000000000000000000000000000000000000000008152600401610dca906113a9565b60405180910390fd5b600073ffffffffffffffffffffffffffffffffffffffff168273ffffffffffffffffffffffffffffffffffffffff161415610e43576040517f08c379a0000000000000000000000000000000000000000000000000000000008152600401610e3a90611329565b60405180910390fd5b610e4e838383610fe4565b60008060008573ffffffffffffffffffffffffffffffffffffffff1673ffffffffffffffffffffffffffffffffffffffff16815260200190815260200160002054905081811015610ed4576040517f08c379a0000000000000000000000000000000000000000000000000000000008152600401610ecb90611389565b60405180910390fd5b8181036000808673ffffffffffffffffffffffffffffffffffffffff1673ffffffffffffffffffffffffffffffffffffffff16815260200190815260200160002081905550816000808573ffffffffffffffffffffffffffffffffffffffff1673ffffffffffffffffffffffffffffffffffffffff1681526020019081526020016000206000828254610f67919061147b565b925050819055508273ffffffffffffffffffffffffffffffffffffffff168473ffffffffffffffffffffffffffffffffffffffff167fddf252ad1be2c89b69c2b068fc378daa952ba7f163c4a11628f55a4df523b3ef84604051610fcb9190611429565b60405180910390a3610fde848484610fe9565b50505050565b505050565b505050565b600081359050610ffd816119fe565b92915050565b60008135905061101281611a15565b92915050565b60006020828403121561102a57600080fd5b600061103884828501610fee565b91505092915050565b6000806040838503121561105457600080fd5b600061106285828601610fee565b925050602061107385828601610fee565b9150509250929050565b60008060006060848603121561109257600080fd5b60006110a086828701610fee565b93505060206110b186828701610fee565b92505060406110c286828701611003565b9150509250925092565b600080604083850312156110df57600080fd5b60006110ed85828601610fee565b92505060206110fe85828601611003565b9150509250929050565b6000806040838503121561111b57600080fd5b600061112985828601611003565b925050602061113a85828601610fee565b9150509250929050565b61114d8161169c565b82525050565b61115c816116ae565b82525050565b600061116d8261145f565b611177818561146a565b93506111878185602086016116f1565b611190816117b4565b840191505092915050565b60006111a860238361146a565b91506111b3826117d2565b604082019050919050565b60006111cb60228361146a565b91506111d682611821565b604082019050919050565b60006111ee601d8361146a565b91506111f982611870565b602082019050919050565b600061121160268361146a565b915061121c82611899565b604082019050919050565b600061123460258361146a565b915061123f826118e8565b604082019050919050565b600061125760248361146a565b915061126282611937565b604082019050919050565b600061127a60118361146a565b915061128582611986565b602082019050919050565b600061129d60258361146a565b91506112a8826119af565b604082019050919050565b6112bc816116da565b82525050565b6112cb816116e4565b82525050565b60006020820190506112e66000830184611144565b92915050565b60006020820190506113016000830184611153565b92915050565b600060208201905081810360008301526113218184611162565b905092915050565b600060208201905081810360008301526113428161119b565b9050919050565b60006020820190508181036000830152611362816111be565b9050919050565b60006020820190508181036000830152611382816111e1565b9050919050565b600060208201905081810360008301526113a281611204565b9050919050565b600060208201905081810360008301526113c281611227565b9050919050565b600060208201905081810360008301526113e28161124a565b9050919050565b600060208201905081810360008301526114028161126d565b9050919050565b6000602082019050818103600083015261142281611290565b9050919050565b600060208201905061143e60008301846112b3565b92915050565b600060208201905061145960008301846112c2565b92915050565b600081519050919050565b600082825260208201905092915050565b6000611486826116da565b9150611491836116da565b9250827fffffffffffffffffffffffffffffffffffffffffffffffffffffffffffffffff038211156114c6576114c5611756565b5b828201905092915050565b6000808291508390505b600185111561151b578086048111156114f7576114f6611756565b5b60018516156115065780820291505b8081029050611514856117c5565b94506114db565b94509492505050565b600061152f826116da565b915061153a836116e4565b92506115677fffffffffffffffffffffffffffffffffffffffffffffffffffffffffffffffff848461156f565b905092915050565b60008261157f576001905061163b565b8161158d576000905061163b565b81600181146115a357600281146115ad576115dc565b600191505061163b565b60ff8411156115bf576115be611756565b5b8360020a9150848211156115d6576115d5611756565b5b5061163b565b5060208310610133831016604e8410600b84101617156116115782820a90508381111561160c5761160b611756565b5b61163b565b61161e84848460016114d1565b9250905081840481111561163557611634611756565b5b81810290505b9392505050565b600061164d826116da565b9150611658836116da565b9250817fffffffffffffffffffffffffffffffffffffffffffffffffffffffffffffffff048311821515161561169157611690611756565b5b828202905092915050565b60006116a7826116ba565b9050919050565b60008115159050919050565b600073ffffffffffffffffffffffffffffffffffffffff82169050919050565b6000819050919050565b600060ff82169050919050565b60005b8381101561170f5780820151818401526020810190506116f4565b8381111561171e576000848401525b50505050565b6000600282049050600182168061173c57607f821691505b602082108114156117505761174f611785565b5b50919050565b7f4e487b7100000000000000000000000000000000000000000000000000000000600052601160045260246000fd5b7f4e487b7100000000000000000000000000000000000000000000000000000000600052602260045260246000fd5b6000601f19601f8301169050919050565b60008160011c9050919050565b7f45524332303a207472616e7366657220746f20746865207a65726f206164647260008201527f6573730000000000000000000000000000000000000000000000000000000000602082015250565b7f45524332303a20617070726f766520746f20746865207a65726f20616464726560008201527f7373000000000000000000000000000000000000000000000000000000000000602082015250565b7f45524332303a20696e73756666696369656e7420616c6c6f77616e6365000000600082015250565b7f45524332303a207472616e7366657220616d6f756e742065786365656473206260008201527f616c616e63650000000000000000000000000000000000000000000000000000602082015250565b7f45524332303a207472616e736665722066726f6d20746865207a65726f20616460008201527f6472657373000000000000000000000000000000000000000000000000000000602082015250565b7f45524332303a20617070726f76652066726f6d20746865207a65726f2061646460008201527f7265737300000000000000000000000000000000000000000000000000000000602082015250565b7f4e6f7420656e6f75676820746f6b656e73000000000000000000000000000000600082015250565b7f45524332303a2064656372656173656420616c6c6f77616e63652062656c6f7760008201527f207a65726f000000000000000000000000000000000000000000000000000000602082015250565b611a078161169c565b8114611a1257600080fd5b50565b611a1e816116da565b8114611a2957600080fd5b5056fea26469706673582212201e152b5e89bf8f66f62fe4681d68c08955a106c870b42ad5c489528250bf2e4f64736f6c63430008040033",
  "linkReferences": {},
  "deployedLinkReferences": {}
}