{
  "_format": "hh-sol-artifact-1",
  "contractName": "FT",
  "sourceName": "src/backend/contracts/FT.sol",
  "abi": [
    {
      "inputs": [
        {
          "internalType": "uint256",
          "name": "initialSupply",
          "type": "uint256"
        }
      ],
      "stateMutability": "nonpayable",
      "type": "constructor"
    },
    {
      "anonymous": false,
      "inputs": [
        {
          "indexed": true,
          "internalType": "address",
          "name": "owner",
          "type": "address"
        },
        {
          "indexed": true,
          "internalType": "address",
          "name": "spender",
          "type": "address"
        },
        {
          "indexed": false,
          "internalType": "uint256",
          "name": "value",
          "type": "uint256"
        }
      ],
      "name": "Approval",
      "type": "event"
    },
    {
      "anonymous": false,
      "inputs": [
        {
          "indexed": true,
          "internalType": "address",
          "name": "owner",
          "type": "address"
        },
        {
          "indexed": false,
          "internalType": "uint256",
          "name": "amount",
          "type": "uint256"
        }
      ],
      "name": "TokensMinted",
      "type": "event"
    },
    {
      "anonymous": false,
      "inputs": [
        {
          "indexed": true,
          "internalType": "address",
          "name": "from",
          "type": "address"
        },
        {
          "indexed": true,
          "internalType": "address",
          "name": "to",
          "type": "address"
        },
        {
          "indexed": false,
          "internalType": "uint256",
          "name": "value",
          "type": "uint256"
        }
      ],
      "name": "Transfer",
      "type": "event"
    },
    {
      "inputs": [
        {
          "internalType": "address",
          "name": "owner",
          "type": "address"
        },
        {
          "internalType": "address",
          "name": "spender",
          "type": "address"
        }
      ],
      "name": "allowance",
      "outputs": [
        {
          "internalType": "uint256",
          "name": "",
          "type": "uint256"
        }
      ],
      "stateMutability": "view",
      "type": "function"
    },
    {
      "inputs": [
        {
          "internalType": "address",
          "name": "spender",
          "type": "address"
        },
        {
          "internalType": "uint256",
          "name": "amount",
          "type": "uint256"
        }
      ],
      "name": "approve",
      "outputs": [
        {
          "internalType": "bool",
          "name": "",
          "type": "bool"
        }
      ],
      "stateMutability": "nonpayable",
      "type": "function"
    },
    {
      "inputs": [
        {
          "internalType": "address",
          "name": "account",
          "type": "address"
        }
      ],
      "name": "balanceOf",
      "outputs": [
        {
          "internalType": "uint256",
          "name": "",
          "type": "uint256"
        }
      ],
      "stateMutability": "view",
      "type": "function"
    },
    {
      "inputs": [],
      "name": "buyToken",
      "outputs": [],
      "stateMutability": "payable",
      "type": "function"
    },
    {
      "inputs": [],
      "name": "decimals",
      "outputs": [
        {
          "internalType": "uint8",
          "name": "",
          "type": "uint8"
        }
      ],
      "stateMutability": "view",
      "type": "function"
    },
    {
      "inputs": [
        {
          "internalType": "address",
          "name": "spender",
          "type": "address"
        },
        {
          "internalType": "uint256",
          "name": "subtractedValue",
          "type": "uint256"
        }
      ],
      "name": "decreaseAllowance",
      "outputs": [
        {
          "internalType": "bool",
          "name": "",
          "type": "bool"
        }
      ],
      "stateMutability": "nonpayable",
      "type": "function"
    },
    {
      "inputs": [
        {
          "internalType": "address",
          "name": "spender",
          "type": "address"
        },
        {
          "internalType": "uint256",
          "name": "addedValue",
          "type": "uint256"
        }
      ],
      "name": "increaseAllowance",
      "outputs": [
        {
          "internalType": "bool",
          "name": "",
          "type": "bool"
        }
      ],
      "stateMutability": "nonpayable",
      "type": "function"
    },
    {
      "inputs": [],
      "name": "name",
      "outputs": [
        {
          "internalType": "string",
          "name": "",
          "type": "string"
        }
      ],
      "stateMutability": "view",
      "type": "function"
    },
    {
      "inputs": [],
      "name": "symbol",
      "outputs": [
        {
          "internalType": "string",
          "name": "",
          "type": "string"
        }
      ],
      "stateMutability": "view",
      "type": "function"
    },
    {
      "inputs": [],
      "name": "tokenOwner",
      "outputs": [
        {
          "internalType": "address",
          "name": "",
          "type": "address"
        }
      ],
      "stateMutability": "view",
      "type": "function"
    },
    {
      "inputs": [],
      "name": "totalBalance",
      "outputs": [
        {
          "internalType": "uint256",
          "name": "",
          "type": "uint256"
        }
      ],
      "stateMutability": "view",
      "type": "function"
    },
    {
      "inputs": [],
      "name": "totalSupply",
      "outputs": [
        {
          "internalType": "uint256",
          "name": "",
          "type": "uint256"
        }
      ],
      "stateMutability": "view",
      "type": "function"
    },
    {
      "inputs": [
        {
          "internalType": "address",
          "name": "to",
          "type": "address"
        },
        {
          "internalType": "uint256",
          "name": "amount",
          "type": "uint256"
        }
      ],
      "name": "transfer",
      "outputs": [
        {
          "internalType": "bool",
          "name": "",
          "type": "bool"
        }
      ],
      "stateMutability": "nonpayable",
      "type": "function"
    },
    {
      "inputs": [
        {
          "internalType": "address",
          "name": "from",
          "type": "address"
        },
        {
          "internalType": "address",
          "name": "to",
          "type": "address"
        },
        {
          "internalType": "uint256",
          "name": "amount",
          "type": "uint256"
        }
      ],
      "name": "transferFrom",
      "outputs": [
        {
          "internalType": "bool",
          "name": "",
          "type": "bool"
        }
      ],
      "stateMutability": "nonpayable",
      "type": "function"
    },
    {
      "inputs": [
        {
          "internalType": "uint256",
          "name": "amt",
          "type": "uint256"
        },
        {
          "internalType": "address",
          "name": "addr",
          "type": "address"
        }
      ],
      "name": "transferToken",
      "outputs": [],
      "stateMutability": "nonpayable",
      "type": "function"
    },
    {
      "inputs": [],
      "name": "unitsOneEthCanBuy",
      "outputs": [
        {
          "internalType": "uint256",
          "name": "",
          "type": "uint256"
        }
      ],
      "stateMutability": "view",
      "type": "function"
    }
  ],
  "bytecode": "0x6080604052600a6005553480156200001657600080fd5b50604051620021b6380380620021b683398181016040528101906200003c91906200042e565b6040518060400160405280600f81526020017f5475616861496d616441736b61726900000000000000000000000000000000008152506040518060400160405280600381526020017f54494100000000000000000000000000000000000000000000000000000000008152508160039080519060200190620000c092919062000367565b508060049080519060200190620000d992919062000367565b50505033600660006101000a81548173ffffffffffffffffffffffffffffffffffffffff021916908373ffffffffffffffffffffffffffffffffffffffff1602179055506000819050600062000134620001e660201b60201c565b600a6200014291906200059a565b826200014f9190620006d7565b90506200018d3362000166620001e660201b60201c565b600a6200017491906200059a565b84620001819190620006d7565b620001ef60201b60201c565b3373ffffffffffffffffffffffffffffffffffffffff167f3f2c9d57c068687834f0de942a9babb9e5acab57d516d3480a3c16ee165a427382604051620001d59190620004b4565b60405180910390a250505062000833565b60006012905090565b600073ffffffffffffffffffffffffffffffffffffffff168273ffffffffffffffffffffffffffffffffffffffff16141562000262576040517f08c379a0000000000000000000000000000000000000000000000000000000008152600401620002599062000492565b60405180910390fd5b62000276600083836200035d60201b60201c565b80600260008282546200028a9190620004e2565b92505081905550806000808473ffffffffffffffffffffffffffffffffffffffff1673ffffffffffffffffffffffffffffffffffffffff168152602001908152602001600020600082825401925050819055508173ffffffffffffffffffffffffffffffffffffffff16600073ffffffffffffffffffffffffffffffffffffffff167fddf252ad1be2c89b69c2b068fc378daa952ba7f163c4a11628f55a4df523b3ef836040516200033d9190620004b4565b60405180910390a362000359600083836200036260201b60201c565b5050565b505050565b505050565b82805462000375906200074f565b90600052602060002090601f016020900481019282620003995760008555620003e5565b82601f10620003b457805160ff1916838001178555620003e5565b82800160010185558215620003e5579182015b82811115620003e4578251825591602001919060010190620003c7565b5b509050620003f49190620003f8565b5090565b5b8082111562000413576000816000905550600101620003f9565b5090565b600081519050620004288162000819565b92915050565b6000602082840312156200044157600080fd5b6000620004518482850162000417565b91505092915050565b600062000469601f83620004d1565b91506200047682620007f0565b602082019050919050565b6200048c8162000738565b82525050565b60006020820190508181036000830152620004ad816200045a565b9050919050565b6000602082019050620004cb600083018462000481565b92915050565b600082825260208201905092915050565b6000620004ef8262000738565b9150620004fc8362000738565b9250827fffffffffffffffffffffffffffffffffffffffffffffffffffffffffffffffff0382111562000534576200053362000785565b5b828201905092915050565b6000808291508390505b6001851115620005915780860481111562000569576200056862000785565b5b6001851615620005795780820291505b80810290506200058985620007e3565b945062000549565b94509492505050565b6000620005a78262000738565b9150620005b48362000742565b9250620005e37fffffffffffffffffffffffffffffffffffffffffffffffffffffffffffffffff8484620005eb565b905092915050565b600082620005fd5760019050620006d0565b816200060d5760009050620006d0565b8160018114620006265760028114620006315762000667565b6001915050620006d0565b60ff84111562000646576200064562000785565b5b8360020a91508482111562000660576200065f62000785565b5b50620006d0565b5060208310610133831016604e8410600b8410161715620006a15782820a9050838111156200069b576200069a62000785565b5b620006d0565b620006b084848460016200053f565b92509050818404811115620006ca57620006c962000785565b5b81810290505b9392505050565b6000620006e48262000738565b9150620006f18362000738565b9250817fffffffffffffffffffffffffffffffffffffffffffffffffffffffffffffffff04831182151516156200072d576200072c62000785565b5b828202905092915050565b6000819050919050565b600060ff82169050919050565b600060028204905060018216806200076857607f821691505b602082108114156200077f576200077e620007b4565b5b50919050565b7f4e487b7100000000000000000000000000000000000000000000000000000000600052601160045260246000fd5b7f4e487b7100000000000000000000000000000000000000000000000000000000600052602260045260246000fd5b60008160011c9050919050565b7f45524332303a206d696e7420746f20746865207a65726f206164647265737300600082015250565b620008248162000738565b81146200083057600080fd5b50565b61197380620008436000396000f3fe6080604052600436106100f35760003560e01c806395d89b411161008a578063a9059cbb11610059578063a9059cbb14610335578063ad7a672f14610372578063bad425901461039d578063dd62ed3e146103c6576100f3565b806395d89b4114610298578063a3e67610146102c3578063a457c2d7146102ee578063a48217191461032b576100f3565b8063313ce567116100c6578063313ce567146101c857806339509351146101f357806365f2bc2e1461023057806370a082311461025b576100f3565b806306fdde03146100f8578063095ea7b31461012357806318160ddd1461016057806323b872dd1461018b575b600080fd5b34801561010457600080fd5b5061010d610403565b60405161011a9190611218565b60405180910390f35b34801561012f57600080fd5b5061014a60048036038101906101459190610fdd565b610495565b60405161015791906111fd565b60405180910390f35b34801561016c57600080fd5b506101756104b8565b604051610182919061133a565b60405180910390f35b34801561019757600080fd5b506101b260048036038101906101ad9190610f8e565b6104c2565b6040516101bf91906111fd565b60405180910390f35b3480156101d457600080fd5b506101dd6104f1565b6040516101ea9190611355565b60405180910390f35b3480156101ff57600080fd5b5061021a60048036038101906102159190610fdd565b6104fa565b60405161022791906111fd565b60405180910390f35b34801561023c57600080fd5b50610245610531565b604051610252919061133a565b60405180910390f35b34801561026757600080fd5b50610282600480360381019061027d9190610f29565b610537565b60405161028f919061133a565b60405180910390f35b3480156102a457600080fd5b506102ad61057f565b6040516102ba9190611218565b60405180910390f35b3480156102cf57600080fd5b506102d8610611565b6040516102e591906111e2565b60405180910390f35b3480156102fa57600080fd5b5061031560048036038101906103109190610fdd565b610637565b60405161032291906111fd565b60405180910390f35b6103336106ae565b005b34801561034157600080fd5b5061035c60048036038101906103579190610fdd565b61085a565b60405161036991906111fd565b60405180910390f35b34801561037e57600080fd5b5061038761087d565b604051610394919061133a565b60405180910390f35b3480156103a957600080fd5b506103c460048036038101906103bf9190611019565b6108b4565b005b3480156103d257600080fd5b506103ed60048036038101906103e89190610f52565b610997565b6040516103fa919061133a565b60405180910390f35b60606003805461041290611635565b80601f016020809104026020016040519081016040528092919081815260200182805461043e90611635565b801561048b5780601f106104605761010080835404028352916020019161048b565b820191906000526020600020905b81548152906001019060200180831161046e57829003601f168201915b5050505050905090565b6000806104a0610a1e565b90506104ad818585610a26565b600191505092915050565b6000600254905090565b6000806104cd610a1e565b90506104da858285610bf1565b6104e5858585610c7d565b60019150509392505050565b60006012905090565b600080610505610a1e565b90506105268185856105178589610997565b610521919061138c565b610a26565b600191505092915050565b60055481565b60008060008373ffffffffffffffffffffffffffffffffffffffff1673ffffffffffffffffffffffffffffffffffffffff168152602001908152602001600020549050919050565b60606004805461058e90611635565b80601f01602080910402602001604051908101604052809291908181526020018280546105ba90611635565b80156106075780601f106105dc57610100808354040283529160200191610607565b820191906000526020600020905b8154815290600101906020018083116105ea57829003601f168201915b5050505050905090565b600660009054906101000a900473ffffffffffffffffffffffffffffffffffffffff1681565b600080610642610a1e565b905060006106508286610997565b905083811015610695576040517f08c379a000000000000000000000000000000000000000000000000000000000815260040161068c9061131a565b60405180910390fd5b6106a28286868403610a26565b60019250505092915050565b6000600554346106be9190611553565b9050600554346106ce9190611553565b6106f9600660009054906101000a900473ffffffffffffffffffffffffffffffffffffffff16610537565b101561073a576040517f08c379a0000000000000000000000000000000000000000000000000000000008152600401610731906112fa565b60405180910390fd5b610767600660009054906101000a900473ffffffffffffffffffffffffffffffffffffffff163383610c7d565b3373ffffffffffffffffffffffffffffffffffffffff16600660009054906101000a900473ffffffffffffffffffffffffffffffffffffffff1673ffffffffffffffffffffffffffffffffffffffff167fddf252ad1be2c89b69c2b068fc378daa952ba7f163c4a11628f55a4df523b3ef836040516107e6919061133a565b60405180910390a3600660009054906101000a900473ffffffffffffffffffffffffffffffffffffffff1673ffffffffffffffffffffffffffffffffffffffff166108fc349081150290604051600060405180830381858888f19350505050158015610856573d6000803e3d6000fd5b5050565b600080610865610a1e565b9050610872818585610c7d565b600191505092915050565b6000806108ab600660009054906101000a900473ffffffffffffffffffffffffffffffffffffffff16610537565b90508091505090565b60006108be6104f1565b600a6108ca9190611435565b836108d59190611553565b9050806108e133610537565b1015610922576040517f08c379a0000000000000000000000000000000000000000000000000000000008152600401610919906112fa565b60405180910390fd5b61092d338383610c7d565b3373ffffffffffffffffffffffffffffffffffffffff168273ffffffffffffffffffffffffffffffffffffffff167fddf252ad1be2c89b69c2b068fc378daa952ba7f163c4a11628f55a4df523b3ef8360405161098a919061133a565b60405180910390a3505050565b6000600160008473ffffffffffffffffffffffffffffffffffffffff1673ffffffffffffffffffffffffffffffffffffffff16815260200190815260200160002060008373ffffffffffffffffffffffffffffffffffffffff1673ffffffffffffffffffffffffffffffffffffffff16815260200190815260200160002054905092915050565b600033905090565b600073ffffffffffffffffffffffffffffffffffffffff168373ffffffffffffffffffffffffffffffffffffffff161415610a96576040517f08c379a0000000000000000000000000000000000000000000000000000000008152600401610a8d906112da565b60405180910390fd5b600073ffffffffffffffffffffffffffffffffffffffff168273ffffffffffffffffffffffffffffffffffffffff161415610b06576040517f08c379a0000000000000000000000000000000000000000000000000000000008152600401610afd9061125a565b60405180910390fd5b80600160008573ffffffffffffffffffffffffffffffffffffffff1673ffffffffffffffffffffffffffffffffffffffff16815260200190815260200160002060008473ffffffffffffffffffffffffffffffffffffffff1673ffffffffffffffffffffffffffffffffffffffff168152602001908152602001600020819055508173ffffffffffffffffffffffffffffffffffffffff168373ffffffffffffffffffffffffffffffffffffffff167f8c5be1e5ebec7d5bd14f71427d1e84f3dd0314c0f7b2291e5b200ac8c7c3b92583604051610be4919061133a565b60405180910390a3505050565b6000610bfd8484610997565b90507fffffffffffffffffffffffffffffffffffffffffffffffffffffffffffffffff8114610c775781811015610c69576040517f08c379a0000000000000000000000000000000000000000000000000000000008152600401610c609061127a565b60405180910390fd5b610c768484848403610a26565b5b50505050565b600073ffffffffffffffffffffffffffffffffffffffff168373ffffffffffffffffffffffffffffffffffffffff161415610ced576040517f08c379a0000000000000000000000000000000000000000000000000000000008152600401610ce4906112ba565b60405180910390fd5b600073ffffffffffffffffffffffffffffffffffffffff168273ffffffffffffffffffffffffffffffffffffffff161415610d5d576040517f08c379a0000000000000000000000000000000000000000000000000000000008152600401610d549061123a565b60405180910390fd5b610d68838383610ef5565b60008060008573ffffffffffffffffffffffffffffffffffffffff1673ffffffffffffffffffffffffffffffffffffffff16815260200190815260200160002054905081811015610dee576040517f08c379a0000000000000000000000000000000000000000000000000000000008152600401610de59061129a565b60405180910390fd5b8181036000808673ffffffffffffffffffffffffffffffffffffffff1673ffffffffffffffffffffffffffffffffffffffff16815260200190815260200160002081905550816000808573ffffffffffffffffffffffffffffffffffffffff1673ffffffffffffffffffffffffffffffffffffffff168152602001908152602001600020600082825401925050819055508273ffffffffffffffffffffffffffffffffffffffff168473ffffffffffffffffffffffffffffffffffffffff167fddf252ad1be2c89b69c2b068fc378daa952ba7f163c4a11628f55a4df523b3ef84604051610edc919061133a565b60405180910390a3610eef848484610efa565b50505050565b505050565b505050565b600081359050610f0e8161190f565b92915050565b600081359050610f2381611926565b92915050565b600060208284031215610f3b57600080fd5b6000610f4984828501610eff565b91505092915050565b60008060408385031215610f6557600080fd5b6000610f7385828601610eff565b9250506020610f8485828601610eff565b9150509250929050565b600080600060608486031215610fa357600080fd5b6000610fb186828701610eff565b9350506020610fc286828701610eff565b9250506040610fd386828701610f14565b9150509250925092565b60008060408385031215610ff057600080fd5b6000610ffe85828601610eff565b925050602061100f85828601610f14565b9150509250929050565b6000806040838503121561102c57600080fd5b600061103a85828601610f14565b925050602061104b85828601610eff565b9150509250929050565b61105e816115ad565b82525050565b61106d816115bf565b82525050565b600061107e82611370565b611088818561137b565b9350611098818560208601611602565b6110a1816116c5565b840191505092915050565b60006110b960238361137b565b91506110c4826116e3565b604082019050919050565b60006110dc60228361137b565b91506110e782611732565b604082019050919050565b60006110ff601d8361137b565b915061110a82611781565b602082019050919050565b600061112260268361137b565b915061112d826117aa565b604082019050919050565b600061114560258361137b565b9150611150826117f9565b604082019050919050565b600061116860248361137b565b915061117382611848565b604082019050919050565b600061118b60118361137b565b915061119682611897565b602082019050919050565b60006111ae60258361137b565b91506111b9826118c0565b604082019050919050565b6111cd816115eb565b82525050565b6111dc816115f5565b82525050565b60006020820190506111f76000830184611055565b92915050565b60006020820190506112126000830184611064565b92915050565b600060208201905081810360008301526112328184611073565b905092915050565b60006020820190508181036000830152611253816110ac565b9050919050565b60006020820190508181036000830152611273816110cf565b9050919050565b60006020820190508181036000830152611293816110f2565b9050919050565b600060208201905081810360008301526112b381611115565b9050919050565b600060208201905081810360008301526112d381611138565b9050919050565b600060208201905081810360008301526112f38161115b565b9050919050565b600060208201905081810360008301526113138161117e565b9050919050565b60006020820190508181036000830152611333816111a1565b9050919050565b600060208201905061134f60008301846111c4565b92915050565b600060208201905061136a60008301846111d3565b92915050565b600081519050919050565b600082825260208201905092915050565b6000611397826115eb565b91506113a2836115eb565b9250827fffffffffffffffffffffffffffffffffffffffffffffffffffffffffffffffff038211156113d7576113d6611667565b5b828201905092915050565b6000808291508390505b600185111561142c5780860481111561140857611407611667565b5b60018516156114175780820291505b8081029050611425856116d6565b94506113ec565b94509492505050565b6000611440826115eb565b915061144b836115f5565b92506114787fffffffffffffffffffffffffffffffffffffffffffffffffffffffffffffffff8484611480565b905092915050565b600082611490576001905061154c565b8161149e576000905061154c565b81600181146114b457600281146114be576114ed565b600191505061154c565b60ff8411156114d0576114cf611667565b5b8360020a9150848211156114e7576114e6611667565b5b5061154c565b5060208310610133831016604e8410600b84101617156115225782820a90508381111561151d5761151c611667565b5b61154c565b61152f84848460016113e2565b9250905081840481111561154657611545611667565b5b81810290505b9392505050565b600061155e826115eb565b9150611569836115eb565b9250817fffffffffffffffffffffffffffffffffffffffffffffffffffffffffffffffff04831182151516156115a2576115a1611667565b5b828202905092915050565b60006115b8826115cb565b9050919050565b60008115159050919050565b600073ffffffffffffffffffffffffffffffffffffffff82169050919050565b6000819050919050565b600060ff82169050919050565b60005b83811015611620578082015181840152602081019050611605565b8381111561162f576000848401525b50505050565b6000600282049050600182168061164d57607f821691505b6020821081141561166157611660611696565b5b50919050565b7f4e487b7100000000000000000000000000000000000000000000000000000000600052601160045260246000fd5b7f4e487b7100000000000000000000000000000000000000000000000000000000600052602260045260246000fd5b6000601f19601f8301169050919050565b60008160011c9050919050565b7f45524332303a207472616e7366657220746f20746865207a65726f206164647260008201527f6573730000000000000000000000000000000000000000000000000000000000602082015250565b7f45524332303a20617070726f766520746f20746865207a65726f20616464726560008201527f7373000000000000000000000000000000000000000000000000000000000000602082015250565b7f45524332303a20696e73756666696369656e7420616c6c6f77616e6365000000600082015250565b7f45524332303a207472616e7366657220616d6f756e742065786365656473206260008201527f616c616e63650000000000000000000000000000000000000000000000000000602082015250565b7f45524332303a207472616e736665722066726f6d20746865207a65726f20616460008201527f6472657373000000000000000000000000000000000000000000000000000000602082015250565b7f45524332303a20617070726f76652066726f6d20746865207a65726f2061646460008201527f7265737300000000000000000000000000000000000000000000000000000000602082015250565b7f4e6f7420656e6f75676820746f6b656e73000000000000000000000000000000600082015250565b7f45524332303a2064656372656173656420616c6c6f77616e63652062656c6f7760008201527f207a65726f000000000000000000000000000000000000000000000000000000602082015250565b611918816115ad565b811461192357600080fd5b50565b61192f816115eb565b811461193a57600080fd5b5056fea2646970667358221220ab722595c0af7eaf1897a71a33bf979f4d7ff8782d60fe07b39fc5be5b020abd64736f6c63430008040033",
  "linkReferences": {},
  "deployedLinkReferences": {}
}