{
  "_format": "hh-sol-artifact-1",
  "contractName": "Marketplace",
  "sourceName": "src/backend/contracts/Marketplace.sol",
  "abi": [
    {
      "inputs": [
        {
          "internalType": "uint256",
          "name": "_feePercent",
          "type": "uint256"
        }
      ],
      "stateMutability": "nonpayable",
      "type": "constructor"
    },
    {
      "anonymous": false,
      "inputs": [
        {
          "indexed": false,
          "internalType": "uint256",
          "name": "itemId",
          "type": "uint256"
        },
        {
          "indexed": true,
          "internalType": "address",
          "name": "nft",
          "type": "address"
        },
        {
          "indexed": false,
          "internalType": "uint256",
          "name": "tokenId",
          "type": "uint256"
        },
        {
          "indexed": false,
          "internalType": "uint256",
          "name": "price",
          "type": "uint256"
        },
        {
          "indexed": false,
          "internalType": "uint256",
          "name": "tokenPrice",
          "type": "uint256"
        },
        {
          "indexed": true,
          "internalType": "address",
          "name": "seller",
          "type": "address"
        },
        {
          "indexed": true,
          "internalType": "address",
          "name": "buyer",
          "type": "address"
        }
      ],
      "name": "Bought",
      "type": "event"
    },
    {
      "anonymous": false,
      "inputs": [
        {
          "indexed": false,
          "internalType": "uint256",
          "name": "itemId",
          "type": "uint256"
        },
        {
          "indexed": true,
          "internalType": "address",
          "name": "nft",
          "type": "address"
        },
        {
          "indexed": false,
          "internalType": "uint256",
          "name": "tokenId",
          "type": "uint256"
        },
        {
          "indexed": false,
          "internalType": "uint256",
          "name": "price",
          "type": "uint256"
        },
        {
          "indexed": false,
          "internalType": "uint256",
          "name": "tokenPrice",
          "type": "uint256"
        },
        {
          "indexed": true,
          "internalType": "address",
          "name": "seller",
          "type": "address"
        }
      ],
      "name": "Offered",
      "type": "event"
    },
    {
      "inputs": [],
      "name": "feeAccount",
      "outputs": [
        {
          "internalType": "address payable",
          "name": "",
          "type": "address"
        }
      ],
      "stateMutability": "view",
      "type": "function"
    },
    {
      "inputs": [],
      "name": "feePercent",
      "outputs": [
        {
          "internalType": "uint256",
          "name": "",
          "type": "uint256"
        }
      ],
      "stateMutability": "view",
      "type": "function"
    },
    {
      "inputs": [
        {
          "internalType": "uint256",
          "name": "_itemId",
          "type": "uint256"
        }
      ],
      "name": "getTotalPrice",
      "outputs": [
        {
          "internalType": "uint256",
          "name": "",
          "type": "uint256"
        }
      ],
      "stateMutability": "view",
      "type": "function"
    },
    {
      "inputs": [
        {
          "internalType": "uint256",
          "name": "_itemId",
          "type": "uint256"
        }
      ],
      "name": "getTotalTokens",
      "outputs": [
        {
          "internalType": "uint256",
          "name": "",
          "type": "uint256"
        }
      ],
      "stateMutability": "view",
      "type": "function"
    },
    {
      "inputs": [],
      "name": "itemCount",
      "outputs": [
        {
          "internalType": "uint256",
          "name": "",
          "type": "uint256"
        }
      ],
      "stateMutability": "view",
      "type": "function"
    },
    {
      "inputs": [
        {
          "internalType": "uint256",
          "name": "",
          "type": "uint256"
        }
      ],
      "name": "items",
      "outputs": [
        {
          "internalType": "uint256",
          "name": "itemId",
          "type": "uint256"
        },
        {
          "internalType": "contract IERC721",
          "name": "nft",
          "type": "address"
        },
        {
          "internalType": "uint256",
          "name": "tokenId",
          "type": "uint256"
        },
        {
          "internalType": "uint256",
          "name": "price",
          "type": "uint256"
        },
        {
          "internalType": "uint256",
          "name": "tokenPrice",
          "type": "uint256"
        },
        {
          "internalType": "address payable",
          "name": "seller",
          "type": "address"
        },
        {
          "internalType": "bool",
          "name": "sold",
          "type": "bool"
        }
      ],
      "stateMutability": "view",
      "type": "function"
    },
    {
      "inputs": [
        {
          "internalType": "contract IERC721",
          "name": "_nft",
          "type": "address"
        },
        {
          "internalType": "uint256",
          "name": "_tokenId",
          "type": "uint256"
        },
        {
          "internalType": "uint256",
          "name": "_price",
          "type": "uint256"
        },
        {
          "internalType": "uint256",
          "name": "_token",
          "type": "uint256"
        }
      ],
      "name": "makeItem",
      "outputs": [],
      "stateMutability": "nonpayable",
      "type": "function"
    },
    {
      "inputs": [
        {
          "internalType": "uint256",
          "name": "_itemId",
          "type": "uint256"
        }
      ],
      "name": "purchaseItem",
      "outputs": [],
      "stateMutability": "payable",
      "type": "function"
    },
    {
      "inputs": [
        {
          "internalType": "uint256",
          "name": "_itemId",
          "type": "uint256"
        },
        {
          "internalType": "uint256",
          "name": "_token",
          "type": "uint256"
        }
      ],
      "name": "purchaseItemViaToken",
      "outputs": [],
      "stateMutability": "nonpayable",
      "type": "function"
    }
  ],
  "bytecode": "0x60c06040523480156200001157600080fd5b506040516200167f3803806200167f83398181016040528101906200003791906200009c565b60016000819055503373ffffffffffffffffffffffffffffffffffffffff1660808173ffffffffffffffffffffffffffffffffffffffff1660601b815250508060a0818152505050620000ec565b6000815190506200009681620000d2565b92915050565b600060208284031215620000af57600080fd5b6000620000bf8482850162000085565b91505092915050565b6000819050919050565b620000dd81620000c8565b8114620000e957600080fd5b50565b60805160601c60a05161155c6200012360003960008181610502015261085c0152600081816102390152610a3c015261155c6000f3fe6080604052600436106100865760003560e01c80639776c17f116100595780639776c17f14610135578063bfb231d21461015e578063ca7dd375146101a1578063d38ea5bf146101de578063ff2d2e07146101fa57610086565b806365e17c9d1461008b578063696aae08146100b65780636bfb0d01146100df5780637fd6f15c1461010a575b600080fd5b34801561009757600080fd5b506100a0610237565b6040516100ad9190610edc565b60405180910390f35b3480156100c257600080fd5b506100dd60048036038101906100d89190610ce8565b61025b565b005b3480156100eb57600080fd5b506100f46104fa565b6040516101019190610fee565b60405180910390f35b34801561011657600080fd5b5061011f610500565b60405161012c9190610fee565b60405180910390f35b34801561014157600080fd5b5061015c60048036038101906101579190610d74565b610524565b005b34801561016a57600080fd5b5061018560048036038101906101809190610d4b565b6107c7565b6040516101989796959493929190611009565b60405180910390f35b3480156101ad57600080fd5b506101c860048036038101906101c39190610d4b565b610856565b6040516101d59190610fee565b60405180910390f35b6101f860048036038101906101f39190610d4b565b6108b9565b005b34801561020657600080fd5b50610221600480360381019061021c9190610d4b565b610c44565b60405161022e9190610fee565b60405180910390f35b7f000000000000000000000000000000000000000000000000000000000000000081565b610263610c64565b600082116102a6576040517f08c379a000000000000000000000000000000000000000000000000000000000815260040161029d90610f4e565b60405180910390fd5b600160008154809291906102b99061130f565b91905055508373ffffffffffffffffffffffffffffffffffffffff166323b872dd3330866040518463ffffffff1660e01b81526004016102fb93929190610ef7565b600060405180830381600087803b15801561031557600080fd5b505af1158015610329573d6000803e3d6000fd5b505050506040518060e0016040528060015481526020018573ffffffffffffffffffffffffffffffffffffffff1681526020018481526020018381526020018281526020013373ffffffffffffffffffffffffffffffffffffffff168152602001600015158152506002600060015481526020019081526020016000206000820151816000015560208201518160010160006101000a81548173ffffffffffffffffffffffffffffffffffffffff021916908373ffffffffffffffffffffffffffffffffffffffff16021790555060408201518160020155606082015181600301556080820151816004015560a08201518160050160006101000a81548173ffffffffffffffffffffffffffffffffffffffff021916908373ffffffffffffffffffffffffffffffffffffffff16021790555060c08201518160050160146101000a81548160ff0219169083151502179055509050503373ffffffffffffffffffffffffffffffffffffffff168473ffffffffffffffffffffffffffffffffffffffff167f8a7207dec41e68d1fbb358baac1c6ead9b1741d156d9bb551ae56d77c4a04e936001548686866040516104e49493929190611102565b60405180910390a36104f4610cb4565b50505050565b60015481565b7f000000000000000000000000000000000000000000000000000000000000000081565b61052c610c64565b600061053783610c44565b9050600060026000858152602001908152602001600020905060008411801561056257506001548411155b6105a1576040517f08c379a000000000000000000000000000000000000000000000000000000000815260040161059890610f8e565b60405180910390fd5b818310156105e4576040517f08c379a00000000000000000000000000000000000000000000000000000000081526004016105db90610fae565b60405180910390fd5b8060050160149054906101000a900460ff1615610636576040517f08c379a000000000000000000000000000000000000000000000000000000000815260040161062d90610f2e565b60405180910390fd5b60018160050160146101000a81548160ff0219169083151502179055508060010160009054906101000a900473ffffffffffffffffffffffffffffffffffffffff1673ffffffffffffffffffffffffffffffffffffffff166323b872dd303384600201546040518463ffffffff1660e01b81526004016106b893929190610ef7565b600060405180830381600087803b1580156106d257600080fd5b505af11580156106e6573d6000803e3d6000fd5b505050503373ffffffffffffffffffffffffffffffffffffffff168160050160009054906101000a900473ffffffffffffffffffffffffffffffffffffffff1673ffffffffffffffffffffffffffffffffffffffff168260010160009054906101000a900473ffffffffffffffffffffffffffffffffffffffff1673ffffffffffffffffffffffffffffffffffffffff167f5c282128ef874365df343162aa2336aae20550adb799aeaf030315e7308978f18785600201546000896040516107b19493929190611078565b60405180910390a450506107c3610cb4565b5050565b60026020528060005260406000206000915090508060000154908060010160009054906101000a900473ffffffffffffffffffffffffffffffffffffffff16908060020154908060030154908060040154908060050160009054906101000a900473ffffffffffffffffffffffffffffffffffffffff16908060050160149054906101000a900460ff16905087565b600060647f000000000000000000000000000000000000000000000000000000000000000060646108879190611158565b60026000858152602001908152602001600020600301546108a891906111df565b6108b291906111ae565b9050919050565b6108c1610c64565b60006108cc82610856565b905060006002600084815260200190815260200160002090506000831180156108f757506001548311155b610936576040517f08c379a000000000000000000000000000000000000000000000000000000000815260040161092d90610f8e565b60405180910390fd5b81341015610979576040517f08c379a000000000000000000000000000000000000000000000000000000000815260040161097090610f6e565b60405180910390fd5b8060050160149054906101000a900460ff16156109cb576040517f08c379a00000000000000000000000000000000000000000000000000000000081526004016109c290610f2e565b60405180910390fd5b8060050160009054906101000a900473ffffffffffffffffffffffffffffffffffffffff1673ffffffffffffffffffffffffffffffffffffffff166108fc82600301549081150290604051600060405180830381858888f19350505050158015610a39573d6000803e3d6000fd5b507f000000000000000000000000000000000000000000000000000000000000000073ffffffffffffffffffffffffffffffffffffffff166108fc826003015484610a849190611239565b9081150290604051600060405180830381858888f19350505050158015610aaf573d6000803e3d6000fd5b5060018160050160146101000a81548160ff0219169083151502179055508060010160009054906101000a900473ffffffffffffffffffffffffffffffffffffffff1673ffffffffffffffffffffffffffffffffffffffff166323b872dd303384600201546040518463ffffffff1660e01b8152600401610b3293929190610ef7565b600060405180830381600087803b158015610b4c57600080fd5b505af1158015610b60573d6000803e3d6000fd5b505050503373ffffffffffffffffffffffffffffffffffffffff168160050160009054906101000a900473ffffffffffffffffffffffffffffffffffffffff1673ffffffffffffffffffffffffffffffffffffffff168260010160009054906101000a900473ffffffffffffffffffffffffffffffffffffffff1673ffffffffffffffffffffffffffffffffffffffff167f5c282128ef874365df343162aa2336aae20550adb799aeaf030315e7308978f186856002015486600301546000604051610c2f94939291906110bd565b60405180910390a45050610c41610cb4565b50565b600060026000838152602001908152602001600020600401549050919050565b60026000541415610caa576040517f08c379a0000000000000000000000000000000000000000000000000000000008152600401610ca190610fce565b60405180910390fd5b6002600081905550565b6001600081905550565b600081359050610ccd816114f8565b92915050565b600081359050610ce28161150f565b92915050565b60008060008060808587031215610cfe57600080fd5b6000610d0c87828801610cbe565b9450506020610d1d87828801610cd3565b9350506040610d2e87828801610cd3565b9250506060610d3f87828801610cd3565b91505092959194509250565b600060208284031215610d5d57600080fd5b6000610d6b84828501610cd3565b91505092915050565b60008060408385031215610d8757600080fd5b6000610d9585828601610cd3565b9250506020610da685828601610cd3565b9150509250929050565b610db98161127f565b82525050565b610dc88161126d565b82525050565b610dd781611291565b82525050565b610de6816112d9565b82525050565b610df5816112fd565b82525050565b6000610e08601183611147565b9150610e13826113b6565b602082019050919050565b6000610e2b601f83611147565b9150610e36826113df565b602082019050919050565b6000610e4e603383611147565b9150610e5982611408565b604082019050919050565b6000610e71601283611147565b9150610e7c82611457565b602082019050919050565b6000610e94603483611147565b9150610e9f82611480565b604082019050919050565b6000610eb7601f83611147565b9150610ec2826114cf565b602082019050919050565b610ed6816112cf565b82525050565b6000602082019050610ef16000830184610db0565b92915050565b6000606082019050610f0c6000830186610dbf565b610f196020830185610dbf565b610f266040830184610ecd565b949350505050565b60006020820190508181036000830152610f4781610dfb565b9050919050565b60006020820190508181036000830152610f6781610e1e565b9050919050565b60006020820190508181036000830152610f8781610e41565b9050919050565b60006020820190508181036000830152610fa781610e64565b9050919050565b60006020820190508181036000830152610fc781610e87565b9050919050565b60006020820190508181036000830152610fe781610eaa565b9050919050565b60006020820190506110036000830184610ecd565b92915050565b600060e08201905061101e600083018a610ecd565b61102b6020830189610ddd565b6110386040830188610ecd565b6110456060830187610ecd565b6110526080830186610ecd565b61105f60a0830185610db0565b61106c60c0830184610dce565b98975050505050505050565b600060808201905061108d6000830187610ecd565b61109a6020830186610ecd565b6110a76040830185610dec565b6110b46060830184610ecd565b95945050505050565b60006080820190506110d26000830187610ecd565b6110df6020830186610ecd565b6110ec6040830185610ecd565b6110f96060830184610dec565b95945050505050565b60006080820190506111176000830187610ecd565b6111246020830186610ecd565b6111316040830185610ecd565b61113e6060830184610ecd565b95945050505050565b600082825260208201905092915050565b6000611163826112cf565b915061116e836112cf565b9250827fffffffffffffffffffffffffffffffffffffffffffffffffffffffffffffffff038211156111a3576111a2611358565b5b828201905092915050565b60006111b9826112cf565b91506111c4836112cf565b9250826111d4576111d3611387565b5b828204905092915050565b60006111ea826112cf565b91506111f5836112cf565b9250817fffffffffffffffffffffffffffffffffffffffffffffffffffffffffffffffff048311821515161561122e5761122d611358565b5b828202905092915050565b6000611244826112cf565b915061124f836112cf565b92508282101561126257611261611358565b5b828203905092915050565b6000611278826112af565b9050919050565b600061128a826112af565b9050919050565b60008115159050919050565b60006112a88261126d565b9050919050565b600073ffffffffffffffffffffffffffffffffffffffff82169050919050565b6000819050919050565b60006112e4826112eb565b9050919050565b60006112f6826112af565b9050919050565b6000611308826112cf565b9050919050565b600061131a826112cf565b91507fffffffffffffffffffffffffffffffffffffffffffffffffffffffffffffffff82141561134d5761134c611358565b5b600182019050919050565b7f4e487b7100000000000000000000000000000000000000000000000000000000600052601160045260246000fd5b7f4e487b7100000000000000000000000000000000000000000000000000000000600052601260045260246000fd5b7f6974656d20616c726561647920736f6c64000000000000000000000000000000600082015250565b7f5072696365206d7573742062652067726561746572207468616e207a65726f00600082015250565b7f6e6f7420656e6f75676820657468657220746f20636f766572206974656d207060008201527f7269636520616e64206d61726b65742066656500000000000000000000000000602082015250565b7f6974656d20646f65736e27742065786973740000000000000000000000000000600082015250565b7f6e6f7420656e6f75676820746f6b656e7320746f20636f766572206974656d2060008201527f707269636520616e64206d61726b657420666565000000000000000000000000602082015250565b7f5265656e7472616e637947756172643a207265656e7472616e742063616c6c00600082015250565b6115018161129d565b811461150c57600080fd5b50565b611518816112cf565b811461152357600080fd5b5056fea26469706673582212204223205c0d85c531d48919f372753df3d2156c24459d58f6875adb1648c3912964736f6c63430008040033",
  "linkReferences": {},
  "deployedLinkReferences": {}
}