{
  "_format": "hh-sol-artifact-1",
  "contractName": "Marketplace",
  "sourceName": "src/backend/contracts/Marketplace.sol",
  "abi": [
    {
      "inputs": [
        {
          "internalType": "uint256",
          "name": "_feePercent",
          "type": "uint256"
        }
      ],
      "stateMutability": "nonpayable",
      "type": "constructor"
    },
    {
      "anonymous": false,
      "inputs": [
        {
          "indexed": false,
          "internalType": "uint256",
          "name": "itemId",
          "type": "uint256"
        },
        {
          "indexed": true,
          "internalType": "address",
          "name": "nft",
          "type": "address"
        },
        {
          "indexed": false,
          "internalType": "uint256",
          "name": "tokenId",
          "type": "uint256"
        },
        {
          "indexed": false,
          "internalType": "uint256",
          "name": "price",
          "type": "uint256"
        },
        {
          "indexed": false,
          "internalType": "uint256",
          "name": "tokenPrice",
          "type": "uint256"
        },
        {
          "indexed": true,
          "internalType": "address",
          "name": "seller",
          "type": "address"
        },
        {
          "indexed": true,
          "internalType": "address",
          "name": "buyer",
          "type": "address"
        }
      ],
      "name": "Bought",
      "type": "event"
    },
    {
      "anonymous": false,
      "inputs": [
        {
          "indexed": false,
          "internalType": "uint256",
          "name": "itemId",
          "type": "uint256"
        },
        {
          "indexed": true,
          "internalType": "address",
          "name": "nft",
          "type": "address"
        },
        {
          "indexed": false,
          "internalType": "uint256",
          "name": "tokenId",
          "type": "uint256"
        },
        {
          "indexed": false,
          "internalType": "uint256",
          "name": "price",
          "type": "uint256"
        },
        {
          "indexed": false,
          "internalType": "uint256",
          "name": "tokenPrice",
          "type": "uint256"
        },
        {
          "indexed": true,
          "internalType": "address",
          "name": "seller",
          "type": "address"
        }
      ],
      "name": "Offered",
      "type": "event"
    },
    {
      "inputs": [],
      "name": "feeAccount",
      "outputs": [
        {
          "internalType": "address payable",
          "name": "",
          "type": "address"
        }
      ],
      "stateMutability": "view",
      "type": "function"
    },
    {
      "inputs": [],
      "name": "feePercent",
      "outputs": [
        {
          "internalType": "uint256",
          "name": "",
          "type": "uint256"
        }
      ],
      "stateMutability": "view",
      "type": "function"
    },
    {
      "inputs": [
        {
          "internalType": "uint256",
          "name": "_itemId",
          "type": "uint256"
        }
      ],
      "name": "getTotalPrice",
      "outputs": [
        {
          "internalType": "uint256",
          "name": "",
          "type": "uint256"
        }
      ],
      "stateMutability": "view",
      "type": "function"
    },
    {
      "inputs": [
        {
          "internalType": "uint256",
          "name": "_itemId",
          "type": "uint256"
        }
      ],
      "name": "getTotalTokens",
      "outputs": [
        {
          "internalType": "uint256",
          "name": "",
          "type": "uint256"
        }
      ],
      "stateMutability": "view",
      "type": "function"
    },
    {
      "inputs": [],
      "name": "itemCount",
      "outputs": [
        {
          "internalType": "uint256",
          "name": "",
          "type": "uint256"
        }
      ],
      "stateMutability": "view",
      "type": "function"
    },
    {
      "inputs": [
        {
          "internalType": "uint256",
          "name": "",
          "type": "uint256"
        }
      ],
      "name": "items",
      "outputs": [
        {
          "internalType": "uint256",
          "name": "itemId",
          "type": "uint256"
        },
        {
          "internalType": "contract IERC721",
          "name": "nft",
          "type": "address"
        },
        {
          "internalType": "uint256",
          "name": "tokenId",
          "type": "uint256"
        },
        {
          "internalType": "uint256",
          "name": "price",
          "type": "uint256"
        },
        {
          "internalType": "uint256",
          "name": "tokenPrice",
          "type": "uint256"
        },
        {
          "internalType": "address payable",
          "name": "seller",
          "type": "address"
        },
        {
          "internalType": "bool",
          "name": "sold",
          "type": "bool"
        }
      ],
      "stateMutability": "view",
      "type": "function"
    },
    {
      "inputs": [
        {
          "internalType": "contract IERC721",
          "name": "_nft",
          "type": "address"
        },
        {
          "internalType": "uint256",
          "name": "_tokenId",
          "type": "uint256"
        },
        {
          "internalType": "uint256",
          "name": "_price",
          "type": "uint256"
        },
        {
          "internalType": "uint256",
          "name": "_token",
          "type": "uint256"
        }
      ],
      "name": "makeItem",
      "outputs": [],
      "stateMutability": "nonpayable",
      "type": "function"
    },
    {
      "inputs": [
        {
          "internalType": "uint256",
          "name": "_itemId",
          "type": "uint256"
        }
      ],
      "name": "purchaseItem",
      "outputs": [],
      "stateMutability": "payable",
      "type": "function"
    },
    {
      "inputs": [
        {
          "internalType": "uint256",
          "name": "_itemId",
          "type": "uint256"
        },
        {
          "internalType": "uint256",
          "name": "_token",
          "type": "uint256"
        }
      ],
      "name": "purchaseItemViaToken",
      "outputs": [],
      "stateMutability": "nonpayable",
      "type": "function"
    }
  ],
  "bytecode": "0x60c06040523480156200001157600080fd5b50604051620016f7380380620016f783398181016040528101906200003791906200009c565b60016000819055503373ffffffffffffffffffffffffffffffffffffffff1660808173ffffffffffffffffffffffffffffffffffffffff1660601b815250508060a0818152505050620000ec565b6000815190506200009681620000d2565b92915050565b600060208284031215620000af57600080fd5b6000620000bf8482850162000085565b91505092915050565b6000819050919050565b620000dd81620000c8565b8114620000e957600080fd5b50565b60805160601c60a0516115d4620001236000396000818161054801526108e80152600081816102390152610b0e01526115d46000f3fe6080604052600436106100865760003560e01c80639776c17f116100595780639776c17f14610135578063bfb231d21461015e578063ca7dd375146101a1578063d38ea5bf146101de578063ff2d2e07146101fa57610086565b806365e17c9d1461008b578063696aae08146100b65780636bfb0d01146100df5780637fd6f15c1461010a575b600080fd5b34801561009757600080fd5b506100a0610237565b6040516100ad9190610f54565b60405180910390f35b3480156100c257600080fd5b506100dd60048036038101906100d89190610d60565b61025b565b005b3480156100eb57600080fd5b506100f4610540565b6040516101019190611066565b60405180910390f35b34801561011657600080fd5b5061011f610546565b60405161012c9190611066565b60405180910390f35b34801561014157600080fd5b5061015c60048036038101906101579190610dec565b61056a565b005b34801561016a57600080fd5b5061018560048036038101906101809190610dc3565b610853565b6040516101989796959493929190611081565b60405180910390f35b3480156101ad57600080fd5b506101c860048036038101906101c39190610dc3565b6108e2565b6040516101d59190611066565b60405180910390f35b6101f860048036038101906101f39190610dc3565b610945565b005b34801561020657600080fd5b50610221600480360381019061021c9190610dc3565b610d16565b60405161022e9190611066565b60405180910390f35b7f000000000000000000000000000000000000000000000000000000000000000081565b600260005414156102a1576040517f08c379a000000000000000000000000000000000000000000000000000000000815260040161029890611046565b60405180910390fd5b6002600081905550600082116102ec576040517f08c379a00000000000000000000000000000000000000000000000000000000081526004016102e390610fc6565b60405180910390fd5b600160008154809291906102ff90611387565b91905055508373ffffffffffffffffffffffffffffffffffffffff166323b872dd3330866040518463ffffffff1660e01b815260040161034193929190610f6f565b600060405180830381600087803b15801561035b57600080fd5b505af115801561036f573d6000803e3d6000fd5b505050506040518060e0016040528060015481526020018573ffffffffffffffffffffffffffffffffffffffff1681526020018481526020018381526020018281526020013373ffffffffffffffffffffffffffffffffffffffff168152602001600015158152506002600060015481526020019081526020016000206000820151816000015560208201518160010160006101000a81548173ffffffffffffffffffffffffffffffffffffffff021916908373ffffffffffffffffffffffffffffffffffffffff16021790555060408201518160020155606082015181600301556080820151816004015560a08201518160050160006101000a81548173ffffffffffffffffffffffffffffffffffffffff021916908373ffffffffffffffffffffffffffffffffffffffff16021790555060c08201518160050160146101000a81548160ff0219169083151502179055509050503373ffffffffffffffffffffffffffffffffffffffff168473ffffffffffffffffffffffffffffffffffffffff167f8a7207dec41e68d1fbb358baac1c6ead9b1741d156d9bb551ae56d77c4a04e9360015486868660405161052a949392919061117a565b60405180910390a3600160008190555050505050565b60015481565b7f000000000000000000000000000000000000000000000000000000000000000081565b600260005414156105b0576040517f08c379a00000000000000000000000000000000000000000000000000000000081526004016105a790611046565b60405180910390fd5b600260008190555060006105c383610d16565b905060006002600085815260200190815260200160002090506000841180156105ee57506001548411155b61062d576040517f08c379a000000000000000000000000000000000000000000000000000000000815260040161062490611006565b60405180910390fd5b81831015610670576040517f08c379a000000000000000000000000000000000000000000000000000000000815260040161066790611026565b60405180910390fd5b8060050160149054906101000a900460ff16156106c2576040517f08c379a00000000000000000000000000000000000000000000000000000000081526004016106b990610fa6565b60405180910390fd5b60018160050160146101000a81548160ff0219169083151502179055508060010160009054906101000a900473ffffffffffffffffffffffffffffffffffffffff1673ffffffffffffffffffffffffffffffffffffffff166323b872dd303384600201546040518463ffffffff1660e01b815260040161074493929190610f6f565b600060405180830381600087803b15801561075e57600080fd5b505af1158015610772573d6000803e3d6000fd5b505050503373ffffffffffffffffffffffffffffffffffffffff168160050160009054906101000a900473ffffffffffffffffffffffffffffffffffffffff1673ffffffffffffffffffffffffffffffffffffffff168260010160009054906101000a900473ffffffffffffffffffffffffffffffffffffffff1673ffffffffffffffffffffffffffffffffffffffff167f5c282128ef874365df343162aa2336aae20550adb799aeaf030315e7308978f187856002015460008960405161083d94939291906110f0565b60405180910390a4505060016000819055505050565b60026020528060005260406000206000915090508060000154908060010160009054906101000a900473ffffffffffffffffffffffffffffffffffffffff16908060020154908060030154908060040154908060050160009054906101000a900473ffffffffffffffffffffffffffffffffffffffff16908060050160149054906101000a900460ff16905087565b600060647f0000000000000000000000000000000000000000000000000000000000000000606461091391906111d0565b60026000858152602001908152602001600020600301546109349190611257565b61093e9190611226565b9050919050565b6002600054141561098b576040517f08c379a000000000000000000000000000000000000000000000000000000000815260040161098290611046565b60405180910390fd5b6002600081905550600061099e826108e2565b905060006002600084815260200190815260200160002090506000831180156109c957506001548311155b610a08576040517f08c379a00000000000000000000000000000000000000000000000000000000081526004016109ff90611006565b60405180910390fd5b81341015610a4b576040517f08c379a0000000000000000000000000000000000000000000000000000000008152600401610a4290610fe6565b60405180910390fd5b8060050160149054906101000a900460ff1615610a9d576040517f08c379a0000000000000000000000000000000000000000000000000000000008152600401610a9490610fa6565b60405180910390fd5b8060050160009054906101000a900473ffffffffffffffffffffffffffffffffffffffff1673ffffffffffffffffffffffffffffffffffffffff166108fc82600301549081150290604051600060405180830381858888f19350505050158015610b0b573d6000803e3d6000fd5b507f000000000000000000000000000000000000000000000000000000000000000073ffffffffffffffffffffffffffffffffffffffff166108fc826003015484610b5691906112b1565b9081150290604051600060405180830381858888f19350505050158015610b81573d6000803e3d6000fd5b5060018160050160146101000a81548160ff0219169083151502179055508060010160009054906101000a900473ffffffffffffffffffffffffffffffffffffffff1673ffffffffffffffffffffffffffffffffffffffff166323b872dd303384600201546040518463ffffffff1660e01b8152600401610c0493929190610f6f565b600060405180830381600087803b158015610c1e57600080fd5b505af1158015610c32573d6000803e3d6000fd5b505050503373ffffffffffffffffffffffffffffffffffffffff168160050160009054906101000a900473ffffffffffffffffffffffffffffffffffffffff1673ffffffffffffffffffffffffffffffffffffffff168260010160009054906101000a900473ffffffffffffffffffffffffffffffffffffffff1673ffffffffffffffffffffffffffffffffffffffff167f5c282128ef874365df343162aa2336aae20550adb799aeaf030315e7308978f186856002015486600301546000604051610d019493929190611135565b60405180910390a45050600160008190555050565b600060026000838152602001908152602001600020600401549050919050565b600081359050610d4581611570565b92915050565b600081359050610d5a81611587565b92915050565b60008060008060808587031215610d7657600080fd5b6000610d8487828801610d36565b9450506020610d9587828801610d4b565b9350506040610da687828801610d4b565b9250506060610db787828801610d4b565b91505092959194509250565b600060208284031215610dd557600080fd5b6000610de384828501610d4b565b91505092915050565b60008060408385031215610dff57600080fd5b6000610e0d85828601610d4b565b9250506020610e1e85828601610d4b565b9150509250929050565b610e31816112f7565b82525050565b610e40816112e5565b82525050565b610e4f81611309565b82525050565b610e5e81611351565b82525050565b610e6d81611375565b82525050565b6000610e806011836111bf565b9150610e8b8261142e565b602082019050919050565b6000610ea3601f836111bf565b9150610eae82611457565b602082019050919050565b6000610ec66033836111bf565b9150610ed182611480565b604082019050919050565b6000610ee96012836111bf565b9150610ef4826114cf565b602082019050919050565b6000610f0c6034836111bf565b9150610f17826114f8565b604082019050919050565b6000610f2f601f836111bf565b9150610f3a82611547565b602082019050919050565b610f4e81611347565b82525050565b6000602082019050610f696000830184610e28565b92915050565b6000606082019050610f846000830186610e37565b610f916020830185610e37565b610f9e6040830184610f45565b949350505050565b60006020820190508181036000830152610fbf81610e73565b9050919050565b60006020820190508181036000830152610fdf81610e96565b9050919050565b60006020820190508181036000830152610fff81610eb9565b9050919050565b6000602082019050818103600083015261101f81610edc565b9050919050565b6000602082019050818103600083015261103f81610eff565b9050919050565b6000602082019050818103600083015261105f81610f22565b9050919050565b600060208201905061107b6000830184610f45565b92915050565b600060e082019050611096600083018a610f45565b6110a36020830189610e55565b6110b06040830188610f45565b6110bd6060830187610f45565b6110ca6080830186610f45565b6110d760a0830185610e28565b6110e460c0830184610e46565b98975050505050505050565b60006080820190506111056000830187610f45565b6111126020830186610f45565b61111f6040830185610e64565b61112c6060830184610f45565b95945050505050565b600060808201905061114a6000830187610f45565b6111576020830186610f45565b6111646040830185610f45565b6111716060830184610e64565b95945050505050565b600060808201905061118f6000830187610f45565b61119c6020830186610f45565b6111a96040830185610f45565b6111b66060830184610f45565b95945050505050565b600082825260208201905092915050565b60006111db82611347565b91506111e683611347565b9250827fffffffffffffffffffffffffffffffffffffffffffffffffffffffffffffffff0382111561121b5761121a6113d0565b5b828201905092915050565b600061123182611347565b915061123c83611347565b92508261124c5761124b6113ff565b5b828204905092915050565b600061126282611347565b915061126d83611347565b9250817fffffffffffffffffffffffffffffffffffffffffffffffffffffffffffffffff04831182151516156112a6576112a56113d0565b5b828202905092915050565b60006112bc82611347565b91506112c783611347565b9250828210156112da576112d96113d0565b5b828203905092915050565b60006112f082611327565b9050919050565b600061130282611327565b9050919050565b60008115159050919050565b6000611320826112e5565b9050919050565b600073ffffffffffffffffffffffffffffffffffffffff82169050919050565b6000819050919050565b600061135c82611363565b9050919050565b600061136e82611327565b9050919050565b600061138082611347565b9050919050565b600061139282611347565b91507fffffffffffffffffffffffffffffffffffffffffffffffffffffffffffffffff8214156113c5576113c46113d0565b5b600182019050919050565b7f4e487b7100000000000000000000000000000000000000000000000000000000600052601160045260246000fd5b7f4e487b7100000000000000000000000000000000000000000000000000000000600052601260045260246000fd5b7f6974656d20616c726561647920736f6c64000000000000000000000000000000600082015250565b7f5072696365206d7573742062652067726561746572207468616e207a65726f00600082015250565b7f6e6f7420656e6f75676820657468657220746f20636f766572206974656d207060008201527f7269636520616e64206d61726b65742066656500000000000000000000000000602082015250565b7f6974656d20646f65736e27742065786973740000000000000000000000000000600082015250565b7f6e6f7420656e6f75676820746f6b656e7320746f20636f766572206974656d2060008201527f707269636520616e64206d61726b657420666565000000000000000000000000602082015250565b7f5265656e7472616e637947756172643a207265656e7472616e742063616c6c00600082015250565b61157981611315565b811461158457600080fd5b50565b61159081611347565b811461159b57600080fd5b5056fea2646970667358221220b12c0af6c21b404d014f22ba0904994c82a60e2a91d5bdc73c1be99b3127105564736f6c63430008040033",
  "linkReferences": {},
  "deployedLinkReferences": {}
}